{
  "contractName": "Ateste",
  "abi": [
    {
      "inputs": [],
      "stateMutability": "nonpayable",
      "type": "constructor"
    },
    {
      "inputs": [
        {
          "internalType": "address",
          "name": "",
          "type": "address"
        }
      ],
      "name": "confirmados",
      "outputs": [
        {
          "internalType": "string",
          "name": "",
          "type": "string"
        }
      ],
      "stateMutability": "view",
      "type": "function",
      "constant": true
    },
    {
      "inputs": [
        {
          "internalType": "uint256",
          "name": "",
          "type": "uint256"
        }
      ],
      "name": "nomes",
      "outputs": [
        {
          "internalType": "string",
          "name": "",
          "type": "string"
        }
      ],
      "stateMutability": "view",
      "type": "function",
      "constant": true
    },
    {
      "inputs": [
        {
          "internalType": "string",
          "name": "_nome",
          "type": "string"
        }
      ],
      "name": "atestar",
      "outputs": [],
      "stateMutability": "nonpayable",
      "type": "function"
    },
    {
      "inputs": [],
      "name": "primeiroNome",
      "outputs": [
        {
          "internalType": "string",
          "name": "",
          "type": "string"
        }
      ],
      "stateMutability": "view",
      "type": "function",
      "constant": true
    },
    {
      "inputs": [],
      "name": "todosNomes",
      "outputs": [
        {
          "internalType": "string[]",
          "name": "",
          "type": "string[]"
        }
      ],
      "stateMutability": "view",
      "type": "function",
      "constant": true
    }
  ],
  "bytecode": "0x608060405234801561001057600080fd5b506109f7806100206000396000f3fe608060405234801561001057600080fd5b50600436106100575760003560e01c806308c204461461005c5780631e7053191461007a57806359d8b2bc14610098578063876e3076146100c8578063d8109e93146100e4575b600080fd5b610064610114565b604051610071919061078b565b60405180910390f35b6100826101e9565b60405161008f9190610769565b60405180910390f35b6100b260048036038101906100ad9190610645565b6102c2565b6040516100bf919061078b565b60405180910390f35b6100e260048036038101906100dd9190610604565b61036e565b005b6100fe60048036038101906100f991906105db565b610406565b60405161010b919061078b565b60405180910390f35b60606001600081548110610151577f4e487b7100000000000000000000000000000000000000000000000000000000600052603260045260246000fd5b906000526020600020018054610166906108f2565b80601f0160208091040260200160405190810160405280929190818152602001828054610192906108f2565b80156101df5780601f106101b4576101008083540402835291602001916101df565b820191906000526020600020905b8154815290600101906020018083116101c257829003601f168201915b5050505050905090565b60606001805480602002602001604051908101604052809291908181526020016000905b828210156102b957838290600052602060002001805461022c906108f2565b80601f0160208091040260200160405190810160405280929190818152602001828054610258906108f2565b80156102a55780601f1061027a576101008083540402835291602001916102a5565b820191906000526020600020905b81548152906001019060200180831161028857829003601f168201915b50505050508152602001906001019061020d565b50505050905090565b600181815481106102d257600080fd5b9060005260206000200160009150905080546102ed906108f2565b80601f0160208091040260200160405190810160405280929190818152602001828054610319906108f2565b80156103665780601f1061033b57610100808354040283529160200191610366565b820191906000526020600020905b81548152906001019060200180831161034957829003601f168201915b505050505081565b6000339050816000808373ffffffffffffffffffffffffffffffffffffffff1673ffffffffffffffffffffffffffffffffffffffff16815260200190815260200160002090805190602001906103c59291906104a6565b506001829080600181540180825580915050600190039060005260206000200160009091909190915090805190602001906104019291906104a6565b505050565b60006020528060005260406000206000915090508054610425906108f2565b80601f0160208091040260200160405190810160405280929190818152602001828054610451906108f2565b801561049e5780601f106104735761010080835404028352916020019161049e565b820191906000526020600020905b81548152906001019060200180831161048157829003601f168201915b505050505081565b8280546104b2906108f2565b90600052602060002090601f0160209004810192826104d4576000855561051b565b82601f106104ed57805160ff191683800117855561051b565b8280016001018555821561051b579182015b8281111561051a5782518255916020019190600101906104ff565b5b509050610528919061052c565b5090565b5b8082111561054557600081600090555060010161052d565b5090565b600061055c610557846107de565b6107ad565b90508281526020810184848401111561057457600080fd5b61057f8482856108b0565b509392505050565b60008135905061059681610993565b92915050565b600082601f8301126105ad57600080fd5b81356105bd848260208601610549565b91505092915050565b6000813590506105d5816109aa565b92915050565b6000602082840312156105ed57600080fd5b60006105fb84828501610587565b91505092915050565b60006020828403121561061657600080fd5b600082013567ffffffffffffffff81111561063057600080fd5b61063c8482850161059c565b91505092915050565b60006020828403121561065757600080fd5b6000610665848285016105c6565b91505092915050565b600061067a83836106f7565b905092915050565b600061068d8261081e565b6106978185610841565b9350836020820285016106a98561080e565b8060005b858110156106e557848403895281516106c6858261066e565b94506106d183610834565b925060208a019950506001810190506106ad565b50829750879550505050505092915050565b600061070282610829565b61070c8185610852565b935061071c8185602086016108bf565b61072581610982565b840191505092915050565b600061073b82610829565b6107458185610863565b93506107558185602086016108bf565b61075e81610982565b840191505092915050565b600060208201905081810360008301526107838184610682565b905092915050565b600060208201905081810360008301526107a58184610730565b905092915050565b6000604051905081810181811067ffffffffffffffff821117156107d4576107d3610953565b5b8060405250919050565b600067ffffffffffffffff8211156107f9576107f8610953565b5b601f19601f8301169050602081019050919050565b6000819050602082019050919050565b600081519050919050565b600081519050919050565b6000602082019050919050565b600082825260208201905092915050565b600082825260208201905092915050565b600082825260208201905092915050565b600061087f82610886565b9050919050565b600073ffffffffffffffffffffffffffffffffffffffff82169050919050565b6000819050919050565b82818337600083830152505050565b60005b838110156108dd5780820151818401526020810190506108c2565b838111156108ec576000848401525b50505050565b6000600282049050600182168061090a57607f821691505b6020821081141561091e5761091d610924565b5b50919050565b7f4e487b7100000000000000000000000000000000000000000000000000000000600052602260045260246000fd5b7f4e487b7100000000000000000000000000000000000000000000000000000000600052604160045260246000fd5b6000601f19601f8301169050919050565b61099c81610874565b81146109a757600080fd5b50565b6109b3816108a6565b81146109be57600080fd5b5056fea2646970667358221220d502339e0998d82a967b828e9c0ff381743d8a882c2c23f552c84a076d55fc9664736f6c63430008000033",
  "immutableReferences": {},
  "source": "//SPDX-License-Identifier: GPL-3.0\r\npragma solidity 0.8.0;\r\n\r\ncontract Ateste {\r\n    \r\n    mapping (address => string) public confirmados;\r\n    string[] public nomes;\r\n\t\r\n\tconstructor() {\r\n\t}\r\n    \r\n    function atestar(string memory _nome) public {\r\n        address enderecoQueDesejaAtestar = msg.sender;\r\n        //require( comparaString(confirmados[enderecoQueDesejaAtestar], \"\"),\"Confirmacao ja realizada\");\r\n        confirmados[enderecoQueDesejaAtestar] = _nome;\r\n        nomes.push(_nome);\r\n    }\r\n\r\n    function comparaString(string memory a, string memory b) private pure returns (bool) {\r\n        return keccak256(abi.encodePacked(a)) \r\n                 == keccak256(abi.encodePacked(b));\r\n    }\r\n\r\n    function primeiroNome() public view returns (string memory) {\r\n        return nomes[0];\r\n    }\r\n\r\n    function todosNomes() public view returns (string[] memory) {\r\n        return nomes;\r\n    }\r\n}\r\n\r\n",
  "sourcePath": "/workspace/rbb-gitpod-node18/lab1/blockchain/contracts/Ateste.sol",
  "compiler": {
    "name": "solc",
    "version": "0.8.0+commit.c7dfd78e.Emscripten.clang"
  },
  "schemaVersion": "3.4.16",
  "updatedAt": "2023-11-20T18:54:58.710Z",
  "networkType": "ethereum",
  "devdoc": {
    "kind": "dev",
    "methods": {},
    "version": 1
  },
  "userdoc": {
    "kind": "user",
    "methods": {},
    "version": 1
  }
}